:020000040800F2
:10000000B0070020010100085D3500080D28000838
:10001000993400089D0A0008393E000800000000DD
:10002000000000000000000000000000EB380008A5
:100030009F0A000800000000E9380008ED380008B9
:100040001B0100081B0100081B0100081B01000820
:100050001B0100081B0100081B0100081B01000810
:100060001B0100081B0100081B0100081B01000800
:100070001B0100081B0100081B0100081B010008F0
:100080001B0100081B0100081B0100081B010008E0
:100090001B0100081B0100081B0100081B010008D0
:1000A0001B0100081B0100081B0100085139000852
:1000B0005D3900081B010008693900081B010008B0
:1000C0001B0100081B0100081B0100081B010008A0
:1000D0001B010008213E00082D3E00081B010008FE
:1000E0001B0100081B0100081B010008DFF80CD0F1
:1000F00000F0C2FC004800471D4C0008B00700207B
:100100000648804706480047FEE7FEE7FEE7FEE7B1
:10011000FEE7FEE7FEE7FEE7FEE7FEE74D390008F3
:10012000ED000008202A04DB203A21FA02F0002129
:10013000704721FA02F3D040C2F1200291400843F7
:1001400019467047D2B201E000F8012B491EFBD2DC
:1001500070470022F6E710B513460A4604461946D2
:10016000FFF7F0FF204610BDF0B480EA0102D40F83
:100170004200B2EB410F02D20246084611464A0045
:1001800042D0C30DDDB2C1F3C752AD1A202D35DA0E
:10019000C1F3160141F4000204B15242C5F1200638
:1001A00002FA06F12A411044B3EBD05F23D0C4B168
:1001B000012DA0EBC35009DCF0BC4FF0004202EA75
:1001C000C352DBB200F5000000F061BB400000F15B
:1001D000807000EBC350A0F1807040EAD1704900FC
:1001E00009E0490841EAC071A0EBC35000F50000E6
:1001F000400800EBC350F0BC00F040BB614201225C
:1002000002EB4101001BF6E7F0BC704781F00041B2
:10021000AAE780F00040A7E780EA010210B502F0EB
:100220000043400022D04A001FD0010E01EB1261B2
:10023000C0F35600C2F3560240F4000042F400023C
:10024000A0FB022000047F39140400D0401C50EAB7
:10025000124001D44000491EC2B20C0604EBD0107B
:10026000401C4008802A02D003E0002010BD20F08E
:100270000100002900DA0020184310BD30B480EAE4
:10028000010202F0004530F0004221F0004013D09E
:1002900090B1C30DD40DC2F31601C0F31600E41AD9
:1002A00041F4000140F400027D34914201D3641C0A
:1002B00000E04900002C02DA30BC002070474FF407
:1002C00000000023914201D3891A034340084FEAFA
:1002D0004101F7D151B1914202D14FF0004105E007
:1002E00002D24FF0010101E06FF0010103EBC450B5
:1002F000284430BC00F0C2BA2DE9FE4F804681EAA6
:100300000300C00F0C46009021F0004123F000458F
:10031000B8EB0200A94105D24046214690461C4652
:100320000B46024623F00040104347D0270DC7F389
:100330000A00C3F30A510290401A019040286BDA78
:10034000C3F3130040F4801B0098924620B10023B1
:10035000D2EB030A63EB0B0B01985946C0F1400244
:10036000504600F06AFA06460D4650465946019A34
:1003700000F072FA10EB08006141002487EA115284
:1003800084EAE7731A4340D0009A62B3019A012AC3
:100390004FEA075215DC001B61EB02014FF00042EF
:1003A00002EA0752CDE90042001C41F580113246B5
:1003B0002B4600F0A9FA03B0BDE8F08F4046214675
:1003C000F9E7001B61EB0201001C41F580130018E6
:1003D0005B412018A2F5001747EB030140EAD570F6
:1003E000B6196D4111E06D084FEA360645EAC07551
:1003F0004FEA0752001B61EB0201001C41F580111E
:1004000049084FEA30000019514132462B4603B0EB
:10041000BDE8F04F00F069BA0098012240000023C7
:10042000D0EB020263EBE073009821464FEAE074E0
:10043000B8EB000061EB0401E9E783F000435BE700
:1004400081F0004158E72DE9FE4F81EA030404F0F2
:10045000004421F0004100944FF0000B23F00043D2
:1004600050EA01045ED052EA03045BD0C3F30A549D
:10047000C1F30A552C44A4F2F3340194A0FB0254B6
:10048000C1F3130141F48011C3F3130343F4801348
:1004900001FB024400FB034E840A970A44EA81549C
:1004A00047EA8357A4FB076802958D0A05FB078579
:1004B0004FEA932C04FB0C542705029D4FEA065883
:1004C00047EA1637B5EB08056EEB070C870E920E60
:1004D00047EA811742EA8312A7FB0201B6EB0B0140
:1004E00064EB00042B0D43EA0C335E1844EB1C5004
:1004F000DA465146E7FB0201C5F313044FEA0B331A
:1005000043EA14534FEA0432019C43EA0603A4F180
:100510000C040294009CCDE900B400F0F5F903B09E
:10052000BDE8F08F00200146F9E72DE9F04D81EAA2
:10053000030404F0004B21F0004514464FF0000A7C
:1005400023F0004150EA050220D054EA01021DD0F8
:10055000C5F30A570246C5F31303C1F31300C1F3F1
:100560000A5640F4801543F48013A7EB0608101BCD
:10057000D64608F2FD3873EB050002D308F10108F6
:1005800001E092185B41B8F1000F03DA0020014648
:10059000BDE8F08D00204FF48011064684460EE041
:1005A000171B73EB050705D3121B63EB050306430B
:1005B0004CEA010C49084FEA300092185B4150EABE
:1005C0000107EDD152EA030012D082EA040083EA67
:1005D0000501084305D0101BAB4106D201220023C0
:1005E00006E000224FF0004302E06FF001025310DA
:1005F0001AEB06004CEB085110EB0A0041EB0B0123
:10060000BDE8F04D00F071B970B521F0004303432F
:100610000CD0C1F30A550024D5EB040564EB0403A8
:10062000D617AD1AB34102DB0020014670BD201879
:1006300041EB025170BDC10F80EAE0700844CA0767
:100640009623002100F023B90EB5C10F80EAE070B7
:100650000844CA07002140F233438DE80E000A46E1
:100660000B4600F051F903B000BD0EB540F2334126
:1006700002910021CDE900110A460B4600F044F931
:1006800003B000BD00F0004220F00040C10DC0F3F7
:10069000160040F400007F2901DA002070479629F7
:1006A00003DCC1F19601C84001E096398840002A78
:1006B000F4D04042704770B5C1F30A5201F00045D2
:1006C0000024C1F3130140F2FF3341F480119A4238
:1006D00001DA002070BD40F233439A42A2F2334265
:1006E00003DC5242FFF71EFD00E090402C43F1D0A6
:1006F000404270BDC1F30A5210B5C1F3130140F27C
:10070000FF3341F480119A4201DA002010BD40F21B
:1007100033439A42A2F2334203DC5242FFF702FD16
:1007200010BD904010BD00F0004230F000400AD0F3
:10073000C10D01F56071C0F3160042EA0151C20813
:1007400040071143704700200146704730B5041E32
:1007500071F1000404DB4FF00044404264EB0101FE
:10076000141E73F1000405DB1C464FF00043524297
:1007700063EB04038B4208BF824230BD30B5041ED8
:1007800071F1000404DB4FF00044404264EB0101CE
:10079000141E73F1000405DB1C464FF00043524267
:1007A00063EB0403994208BF904230BD30B50B465D
:1007B000014600202022012409E021FA02F59D4291
:1007C00005D303FA02F5491B04FA02F52844151E65
:1007D000A2F10102F1DC30BD2DE9F05F05460020F9
:1007E00092469B4688460646814640241BE02846A2
:1007F000414647462246FFF795FC53465A46C01AE3
:10080000914110D311461846224600F016F82D1AD1
:1008100067EB01084F4622460120002100F00DF849
:1008200017EB00094E41201EA4F10104DFDC48460D
:1008300031462A464346BDE8F09F202A04DB203A91
:1008400000FA02F1002070479140C2F1200320FA23
:1008500003F3194390407047202A06DBCB17203A58
:1008600041FA02F043EAE07306E041FA02F3D040B5
:10087000C2F1200291400843194670470029A8BFE1
:100880007047401C490008BF20F00100704710B4B9
:10089000B0FA80FC00FA0CF050EA010404BF10BC6E
:1008A000704749B1CCF1200421FA04F411FA0CF19B
:1008B00018BF012121430843A3EB0C01CB1D4FEAD4
:1008C00000614FEA102042BF002010BC704700EBCF
:1008D000C35010440029A4BF10BC7047401C4900FD
:1008E00008BF20F0010010BC704710B5141E73F152
:1008F000000408DA401C41F1000192185B411A43E0
:1009000001D120F0010010BD2DE9F04D92469B462B
:1009100011B1B1FA81F202E0B0FA80F220329046D1
:10092000FFF78BFF04460F4640EA0A0041EA0B013D
:1009300053465A46084313D0114653EA010019D0D2
:10094000C8F140025046FFF7EDFB05460E46504603
:1009500059464246FFF771FF084305D0012004E0E5
:1009600020463946BDE8F08D0020054346EAE07692
:100970002C4337430A986305E40AA0EB08000022E1
:10098000FD0A44EA47540A3002D500200146E9E74F
:10099000010510196941DDE9084500196941BDE803
:1009A000F04DA2E72DE9F04D00231A461B1A8A41AB
:1009B00003DB00200146BDE8F08DC1F30A52C1F30C
:1009C000130141F480154FF0000BD10702D100183C
:1009D0006D41521E0027044640F2FF11384601EBDC
:1009E000620A3E468046024600204FF48011FFF71F
:1009F00099FBC2197141BB1846EB0100B4EB030C23
:100A000075EB000C04D3E41A65EB000517460E469F
:100A1000241908F101006D4180463428E3DDF919FD
:100A200046EB0600091BA84103D24FF0FF321346E4
:100A300001E0002213461BEB070046EB0A51BDE81C
:100A4000F04DFFF752BFC1F30A52C1F3130140F258
:100A5000FF3341F480119A4202DA002001467047C8
:100A600040F233439A42A2F2334202DC5242FFF791
:100A700059BBFFF7E2BE0000064C074D06E0E068F8
:100A800040F0010394E8070098471034AC42F6D3D5
:100A9000FFF730FB3058000850580008FEE7704759
:100AA00072B6FEE7064A13685B6A0380126800208C
:100AB0005062044A13685B6A0B8011684862704791
:100AC0004C020020DC02002010B590F8211000221A
:100AD000022905D00421816380F82020012010BD67
:100AE00001680B6823F00E030B6001680B6823F0AC
:100AF00001030B6090F84030012404FA03F1C36B4A
:100B0000596080F8214080F82020104610BD000078
:100B100010B590F821100024022903D0042181632C
:100B200001243DE001680A6822F00E020A600168B3
:100B30000A6822F001020A601A4A0168914201D152
:100B4000012121E0174A1432914201D110211BE00A
:100B5000144A2832914201D1891515E0114A3C32DC
:100B6000914201D189140FE00E4A5032914202D1D4
:100B70004FF4803108E00B4A6432914202D14FF4C5
:100B8000801101E04FF08071064A083A516001215E
:100B900080F82110002180F82010416B01B18847B6
:100BA000204610BD0800024070B5044600F0FAF877
:100BB0000546601C02D004480078044400F0F2F8B6
:100BC000401BA042FAD370BDD80000202DE9F84F99
:100BD000DFF8A491002409F1040A0AF1040B23466A
:100BE0004FF00F080BF1040EBEE00127A7403A407A
:100BF000BA4272D1DFF884C14D68A5EB0C06654599
:100C00002BD00DDC032D34D005DC35B3012D19D0EC
:100C1000022D2FD11BE0112D16D0122D2AD119E053
:100C2000B6F5881F19D006DCB6F5803F15D0B6F5AD
:100C3000801F1FD111E0B6F5001F0ED0B6F5041FBE
:100C400018D10AE0CB6815E0CB681B1D12E0CB6819
:100C500008330FE0CB680C330CE08B682BB1012B11
:100C60004FF0080303D0476104E0042302E007616A
:100C700000E00023FF2A01D8064601E000F1040647
:100C80004FEA840501D9A5F12005376808FA05FC6B
:100C900027EA0C0703FA05F547EA050737604D68B0
:100CA000ED0060D5364DAE6946F00106AE61AD6926
:100CB00024F0030605F001050095324D7719BE6852
:100CC000A5072D0F08FA05FC26EA0C06DFF8B8C0C8
:100CD000604503D14FF0000C17E044E0DFF8ACC0F2
:100CE000604502D14FF0010C0FE0DFF8A4C0604571
:100CF00002D14FF0020C08E0DFF898C0604502D145
:100D00004FF0030C01E04FF0040C0CFA05FC4CEA28
:100D1000060CC7F808C04D68D9F80060ED034D46D1
:100D200001D5164300E096432E604D68DAF8006066
:100D3000AD03554601D5164300E096432E604D683D
:100D4000DBF80060ED025D4601D5164300E09643F6
:100D50002E604D68DEF80060AD02754601D5164381
:100D600000E096432E60641C0A6832FA04F57FF4B2
:100D70003CAFBDE8F88F00000004014000001110F6
:100D8000001002400000014000080140000C01403A
:100D900000100140001401400AB1016170470904CC
:100DA000FBE700000148806870470000D800002081
:100DB00070B5040025D094F83D00002520B984F8D2
:100DC0003C50204600F078FA242084F83D0020684A
:100DD000016821F0010101602068016841F40041CF
:100DE00001602068016821F40041016000F0D0FB3F
:100DF0004D4B6168994201D84C4900E04C4988420A
:100E000001D2012070BD4B492268B0FBF1F1566858
:100E100026F03F060E43566062689A4206D94FF4A8
:100E2000967251434FF47A72B1FBF2F12268491C79
:100E3000166A26F03F06314311626168994210D864
:100E40004900401EB0FBF1F2521CC2F30B02042A0F
:100E500001D2042022E0B0FBF1F0401CC0F30B00F3
:100E60001CE0A268F2B301EBC10303EB0116431EC1
:100E7000B3FBF6F35B1C43F480431B0549D092B3EC
:100E800001EBC10202EB0111401EB0FBF1F0401C6E
:100E9000C0F30B0040F4804040F400402168CA6970
:100EA0004CF6FF739A431043C861D4E9071001431D
:100EB0002068026822F0C00211430160D4E90301F6
:100EC00001432068826848F2FF339A4311438160EE
:100ED000D4E9051001432068C26822F0FF021143E3
:100EE000C16001E00EE016E02068016841F00101F8
:100EF00001602564202084F83D00256384F83E507D
:100F0000002070BD01EB4106431EB3FBF6F35B1CF2
:100F1000B3E70120C2E701EB4101401EB0FBF1F055
:100F2000401CC0F30B00B7E7A086010080841E00C0
:100F300000093D0040420F002DE9FF4F83B000261D
:100F4000DDE910799A4693460446DDF8488000961C
:100F5000FFF728FF054694F83D0020287CD119238F
:100F6000012285492046009501F060FD0028F5D159
:100F700094F83C0001286FD0012084F83C002068E0
:100F80000168C90703D1016841F0010101602068CF
:100F9000016821F400610160222084F83D004020B6
:100FA00084F83E0026646762A4F82A90608D20854C
:100FB0007248E062CDE9008553465A4620460499BE
:100FC00001F03CFC00287DD1208DDFF8B491202772
:100FD00068B1012814D00228206801681ED041F4AD
:100FE000806101602068416980690090B6E02068F6
:100FF000416981690091016841F400710160ADE0CF
:101000002068016821F48061016072B6206841693E
:1010100081690091016841F400710AE041F40061C6
:10102000016072B62068416981690091016821F40C
:101030008061016062B691E0032868D801280CD075
:10104000022843464FF000024946204600950FD043
:1010500001F0ECFCB0BB10E08BE02A464146204694
:1010600001F064FD70BB20680069616A08706CE083
:1010700001F0DCFC30BB72B634E02068016821F47A
:101080008061016072B620680069616A0870606AF8
:10109000401C6062208D401E2085608D401E608552
:1010A000384846F2A8110068B0FBF1F0C0EBC00070
:1010B00000EB80000090401E009008D0206840693E
:1010C000C04300E029E040070CD50098F3E744F85E
:1010D000306F6773A673206940F02000206162B60C
:1010E00026731AE02068016841F4007101602068ED
:1010F0000069616A0870606A401C6062218D491E47
:101100002185618D491E618562B621681BE02A46F2
:101110004146204601F00AFD18B1012007B0BDE8A4
:10112000F08F20680069616A0870606A401C606224
:10113000218D491E2185618D491E618521684A697D
:10114000D24352070AD409690170606A401C606288
:10115000208D401E2085608D401E6085208D0028DA
:101160007FF46AAF84F83D7084F83E6084F83C6098
:10117000D4E70220D2E70000020010000000FFFFC9
:1011800004000100E40000202DE9FF4F83B09A46DF
:10119000DDE9119793460446DDF84080FFF702FE33
:1011A000054694F83D0020287FD1192301224049AB
:1011B0002046009501F03AFC002876D194F83C00D6
:1011C000012872D0012084F83C0020680168C9071A
:1011D00003D1016841F0010101602068016821F438
:1011E00000610160212084F83D00402084F83E0029
:1011F00000262664C4F82480A4F82A90608D2085F7
:101200002C48E062CDE9007553465A4620460499C1
:1012100001F092FB70B930E02A463946204601F0D1
:10122000BAFC58B1206C042804D12068016841F44C
:1012300000710160012007B0BDE8F08F606A21688D
:1012400000780861626A521C6262208D401E80B282
:101250002085618D491E618521684B69DB435B07F1
:101260000BD468B110780861606A401C6062208D00
:10127000401E2085608D401E6085208D0028CBD1CA
:101280002A463946204601F0ABFB0028CAD154F863
:101290003D0B016841F400710160202004F81E0933
:1012A000E67766770020C6E7FFE70220C3E7000085
:1012B000020010000000FFFF10B586B00021009171
:1012C00001910291039100681349884222D1134C85
:1012D000A06940F00800A061A069694600F008001C
:1012E00004904FF44070009012200190032003906E
:1012F0000B48FFF76BFC0B49486840F0E06040F09A
:1013000002004860E06940F40010E061E06900F428
:101310000010049006B010BD0054004000100240C0
:10132000000C01400000014002488168027811442D
:1013300081607047D8000020074810B5016841F06F
:1013400010010160032000F075F80F2000F006F88E
:1013500000F024F8002010BD0020024070B50D4DB3
:1013600004464FF47A712878B1FBF0F00A49096815
:10137000B1FBF0F000F0EEFA48B9102C07D20022D1
:101380002146501E00F036F800206C6070BD012030
:1013900070BD0000D8000020E40000200C4808B513
:1013A000816941F001018161816901F001010091D0
:1013B000C16941F08051C161C069064900F08050A7
:1013C0000090486820F0E06040F00070486008BD80
:1013D0000010024000000140002809DB00F01F025D
:1013E000012191404009800000F1E020C0F8001187
:1013F00070470000F0B40E4B1B68C3F30223C3F127
:101400000704042C00D904241D1D072D01D200233C
:1014100000E0DB1E012606FA04F56D1E0D409D401E
:101420009E40761E164045EA0601F0BC02F02ABD39
:101430000CED00E0064A00F0070110684FF6FF03CC
:10144000184040EA0120034908431060704700003B
:101450000CED00E00000FA052DE9F0470D46040010
:1014600067D0DFF81881D8F8000000F00700A84224
:101470000CD2D8F8001021F007012943C8F8001059
:10148000D8F8000000F00700A84252D120683C4E76
:10149000810712D5400703D5706840F4E0607060A2
:1014A0002078000703D5706840F460507060706861
:1014B000A16820F0F000084370602078C00727D0B2
:1014C0006068012810D03168022810D089070029EF
:1014D0002FDA716821F0030101437160FFF762FCAC
:1014E000074641F288390CE031688903EFE789014A
:1014F000EDE7FFF757FCC11B494502D90320BDE8C2
:10150000F0877068616800F00C00B0EB810FF0D1DB
:10151000D8F80010404601F00701A9420BD9016834
:1015200021F0070129430160006800F00700A8428C
:1015300001D00120E3E72078400705D57068E16815
:1015400020F4E060084370602078000706D57068DA
:10155000216920F4605040EAC100706000F038F862
:101560007168084AC1F30311515CC840064908601C
:1015700006480068FFF7F2FE0020C0E700200240A6
:101580000010024078570008E4000020DC00002032
:101590000448054900684968044AC1F30221515CC6
:1015A000C8407047E400002000100240885700083F
:1015B0000448054900684968044AC1F3C221515CE6
:1015C000C8407047E400002000100240885700081F
:1015D00012A085B00FC88DE80F0014A0144B00684E
:1015E00004905968134801F00C02042A10D0082A0C
:1015F0000ED1C1F38342C9031DF802000AD5596810
:1016000004AAC1F34041515C0A4A5043B0FBF1F0D7
:1016100005B0704708494843FAE700000203040593
:10162000060708090A0B0C0D0E0F1010010200002E
:101630000010024000127A0000093D002DE9F84F29
:1016400004006FD02078BE4DC00747D06868C0F353
:101650008100012807D06868C0F38100022809D101
:101660006868C00306D52868800337D560680028FD
:10167000E7D033E06068B0F5803F0BD010B1B0F533
:10168000A02F11D0286820F480302860286820F42A
:10169000802002E0286840F480302860606888B1CB
:1016A000FFF780FB064609E0286840F480202860A8
:1016B000F0E7FFF777FB801B642873D82868800366
:1016C000F7D50BE0FFF76EFB064604E0FFF76AFB79
:1016D000801B6428F1D828688003F7D42078DFF8CD
:1016E000648280074FF0010A4FF0000939D568681D
:1016F00010F00C0F07D06868C0F38100022809D1F0
:101700006868C00306D42868800714D520690128BA
:1017100008D110E02069B0B1C8F800A0FFF742FB83
:10172000064605E007E1FFF73DFB801B0228C4D811
:1017300028688007F7D52868616920F0F80040EA3A
:10174000C10028600DE0C8F80090FFF72BFB0646AB
:1017500004E0FFF727FB801B022823D828688007B6
:10176000F7D4207800072CD57748A169D9B1C0F803
:1017700000A0FFF717FB064604E0FFF713FB801BF2
:1017800002280FD8686A8007F7D570484FF4FA51DD
:101790000068B0FBF1F0009000BF0098411E00917E
:1017A000FAD20EE07CE0C0F80090FFF7FBFA0646A4
:1017B00004E0FFF7F7FA801B022871D8686A8007F7
:1017C000F7D4207840075BD5E8690027C00008D42B
:1017D000E86940F08050E861E869012700F0805036
:1017E00000905B480168C90511D40168834641F443
:1017F00080710160FFF7D6FA064604E0FFF7D2FADF
:10180000801B64284CD8DBF80000C005F6D5E068E2
:1018100001280AD008B1052813D0286A20F0010059
:101820002862286A20F0040002E0286A40F00100E3
:101830002862E06841F2883B88B1FFF7B3FA0646B8
:1018400009E0286A40F004002862EEE7FFF7AAFAF0
:10185000811B59455BD8286A8007F7D50BE0FFF755
:10186000A1FA064604E0FFF79DFA811B59454ED8C0
:10187000286A8007F7D41FB1E86920F08050E8613A
:10188000E069A8B36968C1F38101022946D0022842
:10189000484606D0C8F86000FFF784FA044639E0ED
:1018A00035E04746C8F86000FFF77CFA064604E0DA
:1018B000FFF778FA801B022829D828688001F7D41E
:1018C000206AB0F5803F05D16868A16820F4003037
:1018D00008436860D4E908010843696821F4741179
:1018E00008436860C7F860A0FFF75CFA044605E0AB
:1018F00023E0FFF757FA001B022808D82868800168
:10190000F7D51AE0FFF74EFA001B022802D9032090
:10191000BDE8F88F28688001F4D40EE00128F7D0E4
:101920006868226A00F48031914204D1616A00F44F
:101930007010884201D00120EAE70020E8E70000AB
:10194000001002400000424280044242E4000020B5
:101950000070004010B5401EB0F1807F01D301201F
:1019600010BD4FF0E02460610F21601702F08AFA89
:101970000020A06107202061002010BD7047704743
:1019800070B590F83C20012A26D0012580F83C5003
:10199000022280F83D2002685368946823F07006A4
:1019A0000B68334353600D4B02689A4208D0B2F182
:1019B000804F05D00A4B9A4202D00A4B9A4204D17A
:1019C000496824F080031943916080F83D5000215C
:1019D00080F83C10084670BD022070BD002C01400C
:1019E000000400400008004090F83D10012901D09B
:1019F00001207047022180F83D100168CA6842F05A
:101A00000102CA6000680B49884208D0B0F1804FDB
:101A100005D00949884202D00849884204D181682A
:101A200001F00701062903D0016841F001010160BE
:101A300000207047002C01400004004000080040D6
:101A40002DE9F0410D46040003D094F83D0018B193
:101A500008E00120BDE8F081002084F83C00204629
:101A600000F040F8022084F83D002068816844F2CC
:101A7000070291438160211D206801F07BFF2068EF
:101A800081688269066A2B68AF690B4340F20331B3
:101A90008A4342EA0722A968EF6911434FF6FC42E4
:101AA0009143EA6841EA07210A4329692F6A09013B
:101AB00041EA073111436A686D6926F0220646EA59
:101AC00005152A4383602068816154F8460B026241
:101AD000012004F81F09E0752076E0762077A075D4
:101AE0000020B7E700B585B0002100910191029177
:101AF000039101682148B1F1804F22D0204A9142E0
:101B00001DD1C16941F00401C161C16901F0040145
:101B10000491816941F0080181618069694600F0A2
:101B200008000490C02000901648FFF74FF80022EC
:101B300011461E20FFF75EFC1E20FFF74DFC05B08E
:101B400000BDC16941F00101C161C16901F001013C
:101B50000491816941F0040181618069694600F066
:101B600004000490032000900748FFF72FF800229C
:101B700011461C20FFF73EFC1C20DEE7001002404F
:101B800000080040000C01400008014070B590F8CA
:101B90003E50044690F83F3090F8422090F84300C1
:101BA000022621B104290BD0012D16D10FE0012D01
:101BB00013D1012A11D184F83E6084F8426016E006
:101BC000012B0AD1012808D184F83F600DE0012BD8
:101BD00003D1012A01D1012801D0012070BD84F870
:101BE0003E6084F83F6084F8426084F8436091B1BD
:101BF000042904D001220021206801F0F1FE012215
:101C00000421206801F0ECFE2068016841F0010128
:101C10000160002070BD012200212068F2E7000071
:101C200070B50446007F012822D1254D287870B177
:101C300001281DD10021204600F097FBA8602168F3
:101C400000264E626968884213D9401A19E00021C3
:101C5000204600F08AFB6860012028702068016A35
:101C600021F00A0101622068016A41F0020101626B
:101C700070BD814201D8E86804E04FF6FF72511A46
:101C80000844E860FEF7F1FC0E4A0F4BFEF7DBFB61
:101C90004FF0FF32FEF7B8FCFEF72CFD68702E7097
:101CA0002068016A21F00A0101622068016A01626C
:101CB00006480068C16821F00201C16070BD0000E3
:101CC000080000209CC420B07268A13F04020020DC
:101CD0002DE9F041054690F83C000C46012836D02D
:101CE000012085F83C008AB3042A42D02868082ADB
:101CF00051D0D4E90031E268066A26F480560662C3
:101D0000C769066A27F4407747EA01214FF6FF7753
:101D100021F4704107EA02320A434FF4005126F4DD
:101D2000005601EA03313143C26101622868C1698A
:101D300021F44061C1612868C169A26841EA0221B9
:101D4000C161002085F83C00BDE8F08101E002207F
:101D5000FAE7D4E90012E368286801F0F7FE286882
:101D6000816921F00C01816128688169A2681143B1
:101D70000FE0D4E90012E368286801F013FF286837
:101D8000816921F44061816128688169A26841EA22
:101D900002218161D5E7D4E90027267B016A21F47D
:101DA00080710162C169036A21F00301394321F0A6
:101DB000F00731074FF4007647EA116123F400730E
:101DC00006EA02221A43C16102622868C16921F051
:101DD0000C01C1612868C169A2681143B0E710B560
:101DE000040003D094F83D0010B107E0012010BDBD
:101DF000002084F83C00204600F01EF8022084F801
:101E00003D00211D206801F0B5FD012084F8460049
:101E100084F83E0084F83F0084F8400084F84100D4
:101E200084F8420084F8430084F8440084F84500B4
:101E300084F83D00002010BD00B585B00021009160
:101E40000191029103910068124988421FD1124802
:101E5000816941F400618161816901F4006104914B
:101E6000816941F0040181618069694600F00400E4
:101E700004904FF4807000900848FEF7A7FE0022FF
:101E800011461B20FFF7B6FA1B20FFF7A5FA05B095
:101E900000BD0000002C014000100240000801407D
:101EA00010B5044679B1042910D0082911D094F84E
:101EB000410089B1042912D0082913D094F8452093
:101EC000012814D111E094F83E00F2E794F83F00A5
:101ED000EFE794F84000ECE794F84220F0E794F83C
:101EE0004320EDE794F84420EAE7012A01D00120DD
:101EF00010BD022079B1042912D0082915D084F828
:101F0000410084F84500A9B1042918D0082937D028
:101F10000C2919D139E084F83E0084F84200F2E738
:101F200084F83F0084F84300EDE784F8400084F82B
:101F30004400E8E72068C26842F0020203E020683B
:101F4000C26842F00402C2600122206801F048FD2C
:101F500010492068884208D0B0F1804F05D00E4962
:101F6000884202D00D49884204D1816801F00701FE
:101F7000062903D0016841F001010160002010BD75
:101F80002068C26842F00802DDE72068C26842F0BB
:101F90001002D8E7002C0140000400400008004077
:101FA00070B50446006801694FF00005C943890710
:101FB00015D4C168C943890711D4E91E0161012004
:101FC0002077206880698007204602D0FFF728FE2E
:101FD00004E000F0D1F8204600F074F9257720687D
:101FE0000169C943490717D4C168C943490713D4D4
:101FF0006FF004010161022020772068806910F4ED
:10200000407F204602D0FFF70BFE04E000F0B4F85A
:10201000204600F057F9257720680169C943090770
:1020200016D4C168C943090712D46FF008010161D1
:10203000042020772068C0698007204602D0FFF77F
:10204000EFFD04E000F098F8204600F03BF925771A
:1020500020680169C943C90617D4C168C943C906C4
:1020600013D46FF010010161082020772068C06947
:1020700010F4407F204602D0FFF7D2FD04E000F0CC
:102080007BF8204600F01EF9257720680169C943D6
:10209000C90708D1C168C943C90704D1891E0161B4
:1020A000204600F061F920680169C943090609D496
:1020B000C168C943090605D46FF08001016120465B
:1020C000FFF75CFC20680169C943490609D4C1686F
:1020D000C943490605D46FF040010161204600F074
:1020E00059F920680169C94389060BD4C168C943FD
:1020F000890607D46FF0200101612046BDE87040D9
:10210000FFF73DBC70BD000010B586B00021009106
:1021100001910291039100681349884221D113482B
:10212000816941F004018161816901F00401049138
:10213000816941F0080181618069022400F0080092
:1021400004904020CDE90004694609480394FEF755
:102150003DFD0320CDE90004694606480394FEF7DF
:1021600035FD06B010BD0000000400400010024024
:1021700000080140000C0140704770B5044690F81B
:102180003C000D4601280AD0012084F83C0042B1F1
:10219000042A18D0082A2AD00C2A4DD139E002206E
:1021A00070BD206801F02AFC2068816941F00801B7
:1021B00081612068816921F0040181612068816961
:1021C0002A69114311E0206801F044FC206881690C
:1021D00041F4006181612068816921F4806181613D
:1021E000206881692A6941EA0221816124E020682E
:1021F00001F05EFC2068C16941F00801C1612068FE
:10220000C16921F00401C1612068C1692A691143D3
:1022100011E0206801F078FC2068C16941F4006198
:10222000C1612068C16921F48061C1612068C16910
:102230002A6941EA0221C161002084F83C0070BD96
:1022400010B5040003D094F83D0010B107E0012060
:1022500010BD002084F83C00204600F01FF802204A
:1022600084F83D00211D206801F084FB012084F8E2
:10227000460084F83E0084F83F0084F8400084F86B
:10228000410084F8420084F8430084F8440084F854
:10229000450084F83D00002010BD000008B500682E
:1022A0000649884208D10648C16941F00201C1616E
:1022B000C06900F00200009008BD0000000400406A
:1022C000001002407047000010B5044649B10429CF
:1022D0000AD008290BD094F8410001280AD0012027
:1022E00010BD94F83E00F8E794F83F00F5E794F845
:1022F0004000F2E7022041B3042929D008292AD05E
:1023000084F841000122206801F06AFB134920682B
:10231000884203D1426C42F4004242642068884201
:1023200008D0B0F1804F05D00D49884202D00D4948
:10233000884204D1816801F00701062903D00168B1
:1023400041F001010160002010BD84F83E00D9E792
:1023500084F83F00D6E784F84000D3E7002C014022
:10236000000400400008004070470246002041B1D0
:10237000042909D008290AD00C2901D11068006C61
:1023800070471068406B70471068806B704710682A
:10239000C06B70477047704770470000F8B502681F
:1023A00004461068D168536910F00F0F4FF0000514
:1023B00053D003F0010601F4907737435FD0C20792
:1023C00005D0CA0503D5226C42F0010222644207FF
:1023D00005D5DA0703D0226C42F00202226482079C
:1023E00005D5DA0703D0226C42F00402226402070A
:1023F00007D501F02002324303D0226C42F00802DC
:102400002264226C002A34D0800604D5880602D5C6
:10241000204601F002FC20684069216CC0F3801066
:10242000090700D430B3204601F0DFFB2068416982
:1024300049061BD5416921F040014161A06BA8B15B
:1024400058494163A06BFEF763FB002811D0A06BD5
:10245000416B01B0BDE8F040084783060FD58B06FD
:102460000DD52046BDE8F84001F0D7BB2046FFF768
:1024700093FFF8BD2046FFF78FFF2564F8BD266B5C
:102480002023012E52D1C60650D5CE064ED5106857
:1024900050680090506940062AD5A16B08684068D2
:1024A0000004000CEAD0A68D8642E7D9E085886951
:1024B000202818D0D06820F48070D060206841694E
:1024C00021F0010141612068416921F04001416131
:1024D00084F83E3025632068C16821F01001C16096
:1024E000A06BFEF7F1FAA08DE18D401A81B219E0E0
:1024F000A08DE18D401A81B2E08D0028BED0002968
:10250000BCD0D06820F49070D0602068426922F07E
:102510000102426184F83E3025632068C26822F0DF
:102520001002C2602046FFF736FFF8BD05062BD526
:102530000D0629D594F83D002128F6D1A068B0F504
:10254000805F01D12069B0B1206A411C21622168FD
:1025500000784860E08C401E0004000CE084E4D168
:102560002068C16821F08001C1602068C16841F025
:102570004001C160F8BD206A0088C0F308005060C7
:10258000206A801C2062E5E74006F3D54806F1D5B5
:10259000D168204621F04001D16084F83D3000F040
:1025A00019F9F8BDDB3B000870B5040004D094F8BD
:1025B0003D00002510B106E0012070BD84F83C50BC
:1025C000204600F023F8242084F83D002068C168EC
:1025D00021F40051C160204601F07AFB20680169B6
:1025E00021F4904101612068416921F02A01416193
:1025F0002068C16841F40051C1602564202084F83E
:102600003D0084F83E00002070BD000070B586B02B
:102610000024009401940294039400682D4E2E49E6
:10262000022203232D4DB04226D1886940F4804018
:102630008861886900F480400490886940F0040053
:1026400088618869039300F0040004904815CDE97F
:10265000000269462846FEF7B9FA2815CDE90004BC
:10266000694628460294FEF7B1FA00221146252059
:10267000FEF7C0FE252028E0194EB04227D1C869D8
:1026800040F40030C861C86900F4003004908869E3
:1026900040F0040088618869694600F004000490F5
:1026A0000420CDE9000203932846FEF78FFA0820A4
:1026B000CDE90004694628460294FEF787FA002215
:1026C00011462620FEF796FE2620FEF785FE06B070
:1026D00070BD0000003801400010024000080140B9
:1026E0000044004090F83E30202B0ED159B152B139
:1026F00090F83C30012B08D0012380F83C300023B7
:10270000036301F041BB01207047022070470000C5
:1027100000680349884201D101F0D4B87047000035
:10272000003801402DE9F843044690F83D001F466B
:1027300015460E4620284BD1C6B1BDB194F83C00D9
:10274000012845D0012084F83C004FF00008C4F86F
:102750004080212084F83D00FEF724FBA5848146BB
:10276000E584A068B0F5805F03D004E00120BDE8F7
:10277000F883206920B13546002684F83C800EE0BD
:102780000025FAE78021204601F019FBA0B9ADB180
:1027900015F8010B21684860E08C401EE084E08C55
:1027A0004B464FF0000200970028EBD14FF040015C
:1027B000204601F004FB30B10320D8E736F8020BC5
:1027C000C0F30800E6E7202084F83D000020CEE7B3
:1027D0000220CCE77047000010B50A4C012280218E
:1027E0002046FEF7D9FA0A2002F0FEF900228021E5
:1027F0002046FEF7D1FA04480068C16841F00201A2
:10280000C16010BD0008014004020020FEE701681D
:102810004A69D24352050FD46FF480624A610021A5
:1028200040F8301F202242738173026942F0040293
:102830000261017301207047002070472DE9F84FB5
:102840000446006889460B9E01689846174641F485
:10285000806101602068016841F480710160009628
:102860004FF0011B0022594620460A9B00F0DEF87B
:102870004FF4007A40B120680068C00501D5C4F863
:1028800040A00320BDE8F88F216809F0FE00086130
:102890003346284920460A9A00F0FCF8F0BB20682D
:1028A000416980690090324620460A9900F073F928
:1028B00040B1206C04283AD12068016841F40071CD
:1028C000016034E0FDB2B8F1010F09D02168380A87
:1028D0000861324620460A9900F05DF90028E8D1E7
:1028E00020680561324620460A9900F054F9002814
:1028F000DFD12068016841F48071016000960022F8
:10290000594620460A9B00F091F80028B3D121686F
:1029100009F0FF0040F00100086100E007E03346E5
:10292000044920460A9A00F0B5F80028AAD00120F0
:10293000A8E70000020001002DE9F8430446006802
:102940000D46DDE9089701689846164641F4807106
:1029500001604B4600224FF001112046009700F025
:1029600065F848B120680068C00502D54FF40070D2
:1029700020640320BDE8F883216805F0FE000861AB
:102980003B464A461549204600F084F888B920683D
:102990004169806900903A464946204600F0FBF8BC
:1029A00048B1206C042804D12068016841F400710A
:1029B00001600120DEE7F5B2B8F1010F09D021680E
:1029C000300A08613A464946204600F0E4F80028FB
:1029D000E7D1206805610020CCE70000020001007B
:1029E00070B516460D4604460DE02046FFF70FFF72
:1029F00008B1012070BD681C05D0FEF7D3F9801B1B
:102A0000A84207D835B120684069C0434007ECD4DC
:102A1000002070BD002044F8300F20216173A073A6
:102A2000216941F0200121612073E2E72DE9F0479F
:102A30001D4690460E460446C1F30747DDF8209038
:102A400008E0681C06D0FEF7ADF9A0EB0900A8422B
:102A50000FD875B12068012F18D0806926EA0000D0
:102A60000004000C14D000204045EAD00020BDE84E
:102A7000F087002044F8300F20216173A073216992
:102A800041F02001216120730120F0E74069E5E772
:102A90000120E9E72DE9F047984615460E46044621
:102AA0004FF000094FF0200AC1F3074723E02068E8
:102AB0004069C043400515D42068016841F40071A5
:102AC000016021686FF480604861C4F8309084F838
:102AD0003DA084F83E90216C41F00401216484F80B
:102AE0003C901EE0681C06D0FEF75CF9A0EB0800E5
:102AF000A8420AD84DB12068012F15D0806926EA76
:102B000000000004000C0DD0D1E744F8309F84F899
:102B10000DA084F80E90216941F02001216184F814
:102B20000C900120BDE8F0874069E8E72DE9F0410D
:102B300016460D46044600274FF0200817E040696E
:102B4000C043C0060DD454F8301B6FF0100048612C
:102B500044F80D7B04F81D89A777206A2062277747
:102B600017E0FEF71FF9801BA84208D83DB1206886
:102B70004169C9434906E2D40020BDE8F08144F828
:102B8000307F84F80D80A773206940F02000206119
:102B900027730120F1E770B516460D4604460DE097
:102BA0002046FFF734FE08B1012070BD681C05D037
:102BB000FEF7F8F8801BA84207D835B120684069B5
:102BC000C0430006ECD4002070BD002044F8300F54
:102BD00020216173A073216941F0200121612073DC
:102BE000E2E72DE9FF5F8CB01AAD044695E883015A
:102BF000D4E90823CDE90623FDF71FFC3A464346F6
:102C0000FDF721FCD4E90623FDF776FBCDE90401AD
:102C1000D4E910A35246384641460B93FDF713FC06
:102C2000CDE90001D4E90C939B464A46FDF705FC2B
:102C3000D4E90E23CDE90823FDF7FFFBD4E90023F7
:102C4000FDF75AFB3A464346FDF7FDFBD4E90A235C
:102C5000FDF752FB05460E46DDE900014A465B469C
:102C6000FDF7EEFB8B460A90DDE90001DDE9082364
:102C7000FDF7E6FBCDE90201D4E902013A464346FD
:102C8000FDF7E1FB52460B9BFDF736FBCDE9080152
:102C9000D4E9042328463146FDF72EFB80468A46B8
:102CA00002460B4628463146FDF73FFC81460F465B
:102CB000DDE9020142465346FDF737FC80468A466D
:102CC000DDE90E01DDE90423FDF7B7FBCDE90001E5
:102CD0004A463B46FDF7B7FBDDE90423FDF70CFB55
:102CE000C4E90601CDE90401DDE90023404651466F
:102CF000FDF7A9FBDDE90623FDF7FEFAC4E90801AB
:102D00000A9800902A46334648463946FDF79BFB11
:102D10002A463346FDF794FBC4E90A015B46484660
:102D20003946009AFDF78FFB5B460A9AFDF788FB50
:102D3000C4E90C012A46334640465146FDF783FB61
:102D4000DDE90223FDF77CFBC4E90E015B4640464A
:102D50005146009AFDF777FBDDE90823FDF770FB8C
:102D6000C4E91001DDE9040110B0BDE8F09F2DE9D0
:102D7000F04186B08046012504A8CDE90005642411
:102D80002B467522D02102944046FEF7D5F89DF8D7
:102D90001000682803D0012006B0BDE8F0810027AC
:102DA00003AE8DF80C700096CDE9015401236B221F
:102DB000D0214046FEF7E8F907208DF80C00009678
:102DC000CDE9015401231922D0214046FEF7DCF958
:102DD0008DF80C700096CDE9015401231C22D021FE
:102DE0004046FEF7D1F98DF80C700096CDE90154FC
:102DF00001231B22D0214046FEF7C6F90020CBE775
:102E0000F0B585B00C464FF0FF33062203A98DE8DC
:102E10000E0001233B22D021FEF78EF8BDF80C00F6
:102E200040BA00B22080BDF80E1049BA0EB26680DA
:102E3000BDF8101049BA0DB2A580FDF705FC6FF082
:102E40000B073A46FDF7E0FBC4E902013046FDF707
:102E5000FBFB3A46FDF7D8FBC4E904012846FDF721
:102E6000F3FB3A46FDF7D0FBC4E9060105B0F0BD1F
:102E70002DE9F04F89B00C4664230E2204A98DE899
:102E80000E0001233B22D021FEF756F8BDF81000BA
:102E900040BA00B22080BDF8121049BA09B2618070
:102EA0008946BDF8141049BA09B2A1808846BDF818
:102EB000161049BA0FFA81FABDF8181049BA0FB2C4
:102EC0002784BDF81A1049BA0EB26684BDF81C10EA
:102ED00049BA0DB2A584FDF7B7FB6FF00D0B5A464A
:102EE000FDF792FBC4E902014846FDF7ADFB5A46E7
:102EF000FDF78AFBC4E904014046FDF7A5FB00226B
:102F0000614BFDF712FBC4E906015046FDF793FB48
:102F10005E49FDF7B3F95E49FDF726F920643846AE
:102F2000FDF792FB5B4F00223B46FDF7FEFAC4E93A
:102F30000A013046FDF788FB00223B46FDF7F5FA13
:102F4000C4E90C012846FDF77FFB00223B46FDF754
:102F5000ECFAC4E90E01FDF725FF4F4D2968401A30
:102F6000FDF783FB00224D4BFDF7DFFA81468A46D1
:102F7000FDF718FF2860B4F90010B4F904004943C4
:102F800000FB0010FDF760FB02F0AEF800220546E2
:102F90000E461346FDF7DAFB10D0B4F90200FDF738
:102FA00053FB2A463346FDF7C0FA01F04DFC3C4A7C
:102FB0003C4BFDF748FA0746884601E00027B84633
:102FC000B4F90400FDF740FB0546B4F900000E46D5
:102FD0004042FDF739FB2A46334601F045FD304AB1
:102FE000304BFDF730FADFF8C0B005460E46002240
:102FF0005B46FDF7ABFB06D2D4E9140100222B4B54
:10300000FDF7BCFB0DD30022284B28463146FDF7C7
:10301000B5FB0DD2D4E9140100225B46FDF796FB07
:1030200006D21D485030C0E90656C4E914560DE0DA
:10303000CDE9029AD4E90C01CDE9000116482A46EF
:1030400033465030FFF7CDFDC4E91401D4E9140133
:1030500021F000410022154BFDF790FB03D2E16AFD
:1030600081F00041E162CDE9029AD4E90A01CDE99B
:10307000000109483A4643460830FFF7B2FDC4E96B
:10308000120109B0BDE8F08F0029CC400000AA432E
:10309000B81E1242006060402000002000408F40B7
:1030A000F8C1631ADCA54C40008056C00080564031
:1030B000F0B585B00C466423062203A98DE80E0006
:1030C00001234322D021FDF737FFBDF80C0040BAA1
:1030D00000B22084BDF80E1049BA0EB26684BDF865
:1030E000101049BA0DB2A584FDF7AEFA0D4F0022BB
:1030F0003B46FDF71AFAC4E90A013046FDF7A4FA87
:1031000000223B46FDF711FAC4E90C012846FDF701
:103110009BFA00223B46FDF708FAC4E90E0105B010
:10312000F0BD0000006060401FB50C466423022221
:1031300003A98DE80E0001234122D021FDF7FCFEFA
:10314000BDF80C0040BA00B2FDF775FA0349FDF76F
:1031500095F80349FDF708F820641FBD0000AA4355
:10316000B81E12422DE9F04385B000242648009491
:10317000019402940394816941F020018161816985
:1031800001F020010491816941F0040181618169AC
:1031900001F004010491816941F0080181618069B5
:1031A000DFF8688000F0080049F2800504900022F2
:1031B00029464046FDF7F0FDDFF854904FF4436692
:1031C000002231464846FDF7E7FD0127CDE90057CB
:1031D000022569464046CDE90245FDF7F7FC694600
:1031E0004846CDE90245CDE90067FDF7EFFCA803AD
:1031F00000900848CDE9010469464846FDF7E6FC21
:1032000005B0BDE8F0830000001002400008014056
:10321000000C0140000011100D4810B50B49016071
:103220000C49416000214FF480428160C0E90312E3
:1032300041618161C1610162FDF7BAFD002803D0DF
:10324000BDE81040FDF72CBC10BD0000005400404C
:10325000B0010020A086010010B586B000241948F6
:103260000094019402940394049415490594016018
:103270004721C0E901144FF6FF71C0E9031444610E
:103280008461FEF7ACFD08B1FDF70AFC00946946C5
:103290000C480194FEF774FB08B1FDF701FC012016
:1032A000CDE902400494002202A906480594FEF7E5
:1032B0000FFD002801D0FDF7F3FB06B010BD0000A4
:1032C000002C01400402002010B58CB02421684677
:1032D000FCF73FFF0024154809944FF080410A9401
:1032E000C0E900144FF6FF71C0E902410461846136
:1032F0000120CDE90004CDE902040494CDE90540A4
:103300000794694609480894FEF79AFB08B1FDF74F
:10331000C7FB099409A905480A94FEF731FB002868
:1033200001D0FDF7BDFB0CB010BD00004C02002029
:1033300010B58AB0002407941C2168460894FCF755
:1033400008FF1E481C4901604721C0E9011444F6EA
:103350001F61C0E903148461FEF772FF08B1FDF735
:103360009FFB079407A915480894FEF709FB08B1CD
:10337000FDF796FB6020CDE9000402940022694627
:103380000E480494FEF7F9FE08B1FDF789FB082208
:1033900069460A48FEF7F1FE08B1FDF781FB0C22F1
:1033A00069460648FEF7E9FE08B1FDF779FB0348D8
:1033B000FEF7AAFE0AB010BD0004004094020020EF
:1033C00010B58CB024216846FCF7C3FE00241548D4
:1033D000099413490A94C0E900144FF6FF71C0E93B
:1033E0000241046184610120CDE90004CDE90204B9
:1033F0000494CDE90540079469460A480894FEF70D
:103400001FFB08B1FDF74CFB099409A905480A9474
:10341000FEF7B6FA002801D0FDF742FB0CB010BD54
:1034200000080040DC0200200C4810B50A49016089
:103430004FF4E1314160002181600C22C160C0E99C
:1034400004128161C161FFF7AFF8002803D0BDE825
:103450001040FDF725BB10BD0038014024030020BB
:103460000C4810B50A4901604FF416514160002123
:1034700081600C22C160C0E904128161C161FFF763
:1034800093F8002803D0BDE81040FDF709BB10BD3C
:103490000044004068030020FEE700002DE9F041F1
:1034A000002903DA401C4942C0B209B244F61F6247
:1034B000914201DD114602E0002900DA0021244F8B
:1034C0000200244B244C38684FF4004519D0012ADF
:1034D0001FD09E14022A25D0032A2BD00021C163BD
:1034E000386801640A4620211F461846FDF754FC3F
:1034F000002229462046FDF74FFC002210213846C5
:1035000014E0C163012220211846FDF745FC00228A
:1035100006E0C163002220211846FDF73DFC012290
:1035200029460FE00164012210211846FDF734FC02
:10353000002206E00164002210211846FDF72CFC51
:10354000012231462046BDE8F041FDF725BC0000D0
:1035500094020020000C014000080140FEE770B515
:1035600000250021284600F0DCF80024002000F0AF
:103570008DF9641CE4B2802CF8D36D1CEDB2082DDB
:10358000EFD370BD10B5064C012291022046FDF725
:1035900003FC20460122BDE81040D102FDF7FCBB30
:1035A000000C01402DE9F047144E002407464FF06F
:1035B00080084FF40069351528FA04F23A4049466C
:1035C0003046FDF7E9FB012229463046FDF7E4FBD2
:1035D000002229463046FDF7DFFB641CE4B2082CCC
:1035E000EAD3012229463046FDF7D6FB294630466C
:1035F000BDE8F0470022FDF7CFBB0000000C014002
:1036000070B501220B4DD40221462846FDF7C4FBBC
:103610000122960231462846FDF7BEFB00222146D4
:103620002846FDF7B9FB31462846BDE87040002228
:10363000FDF7B2BB000C014070B50A4D4FF40064B9
:10364000002221462846FDF7A7FB012291022846C9
:10365000FDF7A2FB21462846BDE870400122FDF798
:103660009BBB0000000C014010B500214FF47A72A2
:103670000020401C9042FCD3491C9142F8D3FFF734
:1036800081FFAE2000F0F1F8D52000F0EEF88020A8
:1036900000F0EBF8A82000F0E8F83F2000F0E5F893
:1036A000D32000F0E2F8002000F0DFF8402000F026
:1036B000DCF8A12000F0D9F8C82000F0D6F8DA2014
:1036C00000F0D3F8122000F0D0F8812000F0CDF8FF
:1036D000CF2000F0CAF8D92000F0C7F8F12000F0A0
:1036E000C4F8DB2000F0C1F8302000F0BEF8A420C0
:1036F00000F0BBF8A62000F0B8F88D2000F0B5F877
:10370000142000F0B2F8AF2000F0AFF8BDE8104090
:10371000FFF725BF0346012000E05843491EFCD2B5
:10372000704710B50C4640F0B00000F09EF8102035
:1037300040EA141000F099F804F00F00BDE81040C2
:1037400000F093B82DE9F0410746CE004000083E56
:10375000801E15464FF0FF38F1B2C0B2FFF7E1FF0F
:103760001148002400EB05152819A0F5805090F8A9
:10377000000E00F08BF8641CE4B2082CF4D308EBC4
:103780004700F1B2C0B2FFF7CCFF00242819A0F522
:10379000805090F8080E00F079F8641CE4B2082C10
:1037A000F4D3BDE8F0810000885100082DE9F0470E
:1037B0001D4616460F46814600244FF00A0812E0C7
:1037C000291B0A20491EFFF7A5FFB6FBF0F1B1FB4C
:1037D000F8F208FB12123819C1B248463032FFF72E
:1037E000B1FF641CE4B2AC42EAD3BDE8F0872DE936
:1037F000F0471E4615000F46814603D42B22FFF7E3
:10380000A1FF03E02D22FFF79DFF6D4200244FF042
:103810000A0813E0311B0A20491EFFF77BFFB5FBA6
:10382000F0F1B1FBF8F208FB12123819401CC1B2DA
:1038300048463032FFF786FF641CE4B2B442E9D355
:10384000BDE8F0872DE9F04115460E4607460024F5
:1038500006E03019C1B23846FFF774FF641CE4B2C9
:103860002A5D002AF5D1BDE8F08110B50446FFF7C6
:10387000C7FE7820FFF796FE0020FFF793FE204654
:10388000FFF790FEBDE81040FFF7D6BE10B5044626
:10389000FFF7B6FE7820FFF785FE4020FFF782FE97
:1038A0002046FFF77FFEBDE81040FFF7C5BE0000D1
:1038B000022202490248FEF715BF00000000002066
:1038C0002403002006480178A52903D14078044943
:1038D00028384860022202490248FEF703BF000070
:1038E000000000202403002070477047FDF71CBD36
:1038F00030B58FB028216846FCF72BFC14210AA8AC
:10390000FCF727FC0120010400248DE8130004903B
:103910004FF4E010CDE90810022507956846FDF741
:103920008DFE08B172B6FEE70F20CDE90A054FF40F
:103930008060CDE90C4002210AA80E94FDF78CFDB1
:10394000002801D072B6FEE70FB030BD704700000E
:103950000148FEF725BB0000040200200148FEF7E5
:103960001FBB00004C0200200148FEF719BB0000FD
:10397000DC020020F0B50268164C174D174E4FF0D0
:103980008047A04205D0B84203D0A84201D0B0423F
:1039900003D122F070034A681A43A04205D0B8420E
:1039A00003D0A84201D0B04203D122F44073CA68C8
:1039B0001A434B6922F080021A4302608A68C2628D
:1039C0000A688262A04201D1096901630121416153
:1039D000F0BD0000002C0140000400400008004041
:1039E00010B501F01F010123046A8B409C4304625F
:1039F000036A8A401343036210BD000030B5026AB7
:103A000022F001020262036A4268846924F07305AD
:103A10000C682C4323F002058B682B430C4DA84205
:103A200006D123F00805CB6843EA050323F004031D
:103A300007D14D6922F4407245EA02058A6942EADB
:103A400005024260846149684163036230BD000041
:103A5000002C014030B5026A22F010020262026AB4
:103A6000436884690D6824F4E64444EA05248D68BB
:103A700022F0200242EA05120C4DA84206D1CD6880
:103A800022F0800242EA051222F0400207D14D697D
:103A900023F4406343EA85038D6943EA8503436069
:103AA000846149688163026230BD0000002C0140DE
:103AB00030B5026A22F480720262036A4268C46905
:103AC00023F4007324F073050C682C438D6843EADB
:103AD00005230C4DA84206D1CD6823F4006343EAC8
:103AE000052323F4806307D14D6922F4405242EA52
:103AF00005128D6942EA05124260C4614968C163DA
:103B0000036230BD002C014030B5026A22F48052BD
:103B10000262036A4268C4690D6824F4E64444EA18
:103B200005248D6823F4005343EA0533064DA8426B
:103B300004D14D6922F4804242EA85124260C46198
:103B400049680164036230BD002C014070B5046A0D
:103B500024F0010404628469056A0F4EB04208D063
:103B6000B0F1804F05D00D4EB04202D00C4EB042A5
:103B700003D124F00304144301E044F001041A07C4
:103B800024F0F00444EA126225F00A0301F00A016D
:103B900019438261016270BD002C014000040040A5
:103BA0000008004030B5046A24F0100404628569FE
:103BB000046A25F4407545EA022222F470454FF666
:103BC000FF7202EA033224F0A0032A43A02404EA8D
:103BD000011119438261016230BD10B5406A0021B4
:103BE000C185C184FEF7D8FB10BD0168CA6822F404
:103BF0009072CA6001684A6922F001024A61016B51
:103C0000012904D10168CA6822F01002CA6020218B
:103C100080F83E1000210163704708B590F83E100F
:103C2000222901D0022008BD81684FF480539942B7
:103C300001D1026922B1826A99421BD049B10AE0DE
:103C40000268816A5268C2F308020A80816A891C8C
:103C500008E0016971B10168496801F07F011170E4
:103C6000816A491C8162C18D491E0904090CC18504
:103C700003D019E001684968F1E70168CA6822F0D9
:103C80002002CA600168CA6822F48072CA600168B2
:103C90004A6922F001024A61202180F83E10016B3E
:103CA000012903D0FEF734FD002008BD0021016387
:103CB0000168CA6822F01002CA6001680A68D20668
:103CC00002D50A6849680091818DFEF764FBEBE735
:103CD00070B5044600680169E26821F4405111435F
:103CE0000161A16820690143606901432068C268DD
:103CF00041F20C639A430A43C26020684169A26999
:103D000021F44071114341611E492068884202D16B
:103D1000FDF74EFC01E0FDF73BFC00EBC00101EBC1
:103D20000011606864228000B1FBF0F3B3FBF2F392
:103D30006FF018067343B1FBF0F5B1FBF0F605EB3D
:103D40008305322303EB0515B5FBF2F5B6FBF2F65E
:103D500005F0F00505EB0615B1FBF0F6B1FBF0F050
:103D6000B0FBF2F06FF01801484306EB800003EB64
:103D70000010B0FBF2F0216800F00F0028448860CA
:103D800070BD00000038014081628285C28500213B
:103D90000164222280F83E2080F83C100168CA6845
:103DA00042F48072CA6001684A6942F001024A61C5
:103DB0000068C16841F02001C160002070472DE912
:103DC000F0411E46174688460446069D1CE0681CC6
:103DD0001AD025B1FCF7E6FF801BA84214D9206851
:103DE000C16821F4D071C1602068416921F00101EE
:103DF0004161202084F83D0084F83E00002084F8D2
:103E00003C000320BDE8F0812068016838EA010029
:103E100004D00020B842DAD00020F3E70120F9E70F
:103E20000148FEF7BBBA0000240300200148FEF75A
:103E3000B5BA000068030020FEE700000FB4054B90
:103E400010B503A9044A029800F066F910BC5DF8A9
:103E500014FB0000014C0008E8000020490050EA73
:103E6000C12018BF04204A0D18BF40F0010040F2E5
:103E7000FF72B2EB515F08BF40F00200012808BF9B
:103E8000052070470907090E002804DB00F1E02037
:103E900080F80014704700F00F0000F1E02080F877
:103EA000141D70472DE9F0414F1E00EBC701044679
:103EB000D1E9000115461E4637F006020DD02A460C
:103EC0003346FCF7C0FA7F1E04EBC703D3E9002397
:103ED000FCF712FA37F00602F1D1022F25D0042F99
:103EE00013D0062F18BFBDE8F0812A463346FCF7F1
:103EF000AAFAD4E90A23FCF7FFF92A463346FCF76D
:103F0000A2FAD4E90823FCF7F7F92A463346FCF76E
:103F10009AFAD4E90623FCF7EFF92A463346FCF770
:103F200092FAD4E90423FCF7E7F92A463346FCF772
:103F30008AFAD4E90223FCF7DFF92A463346FCF774
:103F400082FAD4E90023BDE8F041FCF7D5B901229B
:103F5000FCF75ABBFCF7D0B9024A00201107FCF766
:103F600053BB000001FDFFFF02E008C8121F08C19B
:103F7000002AFAD170477047002001E001C1121FEA
:103F8000002AFBD17047000001490860704700001B
:103F9000EC0000202DE9FF5F82B00021DDE9043054
:103FA000020DDDF840B0034318D044F61050A2F2E1
:103FB000FF3242431514119801281FD0A5EB0B00C6
:103FC000401C5FEA000A4FF000064E4FDFF83891C0
:103FD000B046504615D5CAF1000413E011980124EB
:103FE0004AA3012801D16FEA0B010298119AC0E996
:103FF0000031C0E9024206B0BDE8F09FCBF10000FD
:10400000DFE704460021404A491842EB0450CDE95D
:10401000001012E0E00707D032463B4640464946D2
:10402000FCF711FA8046894632463B46104619464F
:10403000FCF709FA06460F466410002CEAD1DDE9C8
:104040000401DDE90023BAF1000F06DAFCF7FBF901
:1040500042464B46FCF7F7F905E0FCF766FA4246A4
:104060004B46FCF762FA04460E460022284BFCF74A
:1040700085FB03D84FF0FF30014607E00022254BB7
:1040800020463146FCF738F9FCF7DDFC102409E046
:10409000002C0ADB0A220023FCF79EFB039B303234
:1040A0001A55641E50EA0102F2D1641C039AC4F14D
:1040B00011031444119A012A03D0012208430DD19F
:1040C0000AE0084304D000204FF0110B119072E772
:1040D000A3EB0B056D1E0DE05B4504DD4FF0000208
:1040E00005F1010504E003DA4FF00002A5F1010536
:1040F000002AECD002981199C0E90231C0E90045CC
:1041000079E70000000014400000F03F300000009C
:104110000000F0430000E03F2DE9FF4F95B09B46C3
:104120008946064600250FE2252877D10024274638
:10413000F84A0121059400E0044316F8013F203BB2
:1041400001FA03F01042F7D130782A2811D06FF02D
:104150002F033078A0F13002092A16D8059A44F0CE
:10416000020402EB820203EB42021044761C05902B
:10417000EFE759F8042B0592002A03DA504244F481
:104180000054059044F00204761C30782E2816D195
:1041900016F8010F44F004042A280DD06FF02F0206
:1041A0003078A0F13003092B09D807EB870302EB25
:1041B0004303C718761CF3E759F8047B761C307864
:1041C0006C280FD006DC4C2817D068280DD06A2840
:1041D00014D104E0742810D07A280FD10DE044F4F3
:1041E00000140AE044F4801401E044F440147278AE
:1041F000824202D104F58014761C761C3078662841
:104200000BD013DC582877D009DC002875D045285E
:10421000F6D04628F4D047281AD19DE118E063284B
:1042200035D0642879D0652812D195E1702873D0F3
:1042300008DC6728F1D069286FD06E280DD06F2870
:1042400006D1B5E073282CD0752875D0782874D0A5
:104250005A46179990476D1C75E1C4F30250022825
:1042600009D003280DD0D9F8001004280DD00D6016
:1042700009F1040967E1D9F80010EA17C1E9005211
:10428000F6E7D9F800100D80F2E70D70F0E719F8A5
:10429000041B8DF8001000208DF80100EA46012073
:1042A00003E059F804AB4FF0FF3061074FF0000115
:1042B00002D40DE008F101018846B9420FDA8045C9
:1042C000F8DB1AF808100029F4D108E008F1010120
:1042D00088468142FADB1AF808100029F6D10598C1
:1042E0005B46A0EB080721463846179A00F094FA7F
:1042F000284400EB080507E04DE029E10DE01AF83D
:10430000010B5A4617999047B8F10108F7D25B465E
:1043100021463846179A13E142E00A220092C4F37C
:1043200002524FF0000A022A08D059F804CB032A9F
:104330004FEAEC710AD00DE029E02AE009F107010B
:1043400021F00702F2E802C1914609E00FFA8CFC65
:104350004FEAEC71042A03D14FFA8CFC4FEAEC715E
:10436000002907DA0A460021DCF1000C61EB0201AA
:104370002D2202E0220504D52B228DF804200122F3
:1043800003E0E20701D02022F7E7904659E00A2136
:1043900002E010220DE010214FF0000A00910BE026
:1043A00010224FF0000A44F004040827009203E0B2
:1043B00008224FF0000A0092C4F30252022A05D0EC
:1043C00059F804CB0021032A08D009E009F10701BC
:1043D00021F00702F2E802C1914605E01FFA8CFCC9
:1043E000042A01D10CF0FF0C4FF00008220728D559
:1043F000702806D0009B83F0100353EA0A0305D00F
:104400000EE040228DF80420012208E05CEA01025F
:1044100006D030228DF804208DF805000222904647
:10442000009B83F0080353EA0A030AD15CEA010205
:1044300001D1620705D530228DF804204FF0010824
:104440007F1E582804D034A003900EA802900DE0DF
:1044500036A0F9E753466046009AFCF7BDF984465A
:104460000398825C0298401E029002705CEA010090
:10447000F0D1029806A9081A00F1200A600702D5B7
:1044800024F4803400E00127574502DDA7EB0A0041
:1044900000E0002000EB0A01009005984144401A1A
:1044A0000590E00306D45B462146179A059800F074
:1044B000B3F90544002706E001A85A46C05D1799E4
:1044C00090476D1C7F1C4745F6DBE0030CD55B462F
:1044D0002146179A059800F09FF9054404E0302022
:1044E0005A46179990476D1C0099481E0090002964
:1044F000F5DC08E0029802995A460078491C0291BE
:10450000179990476D1CBAF10001AAF1010AF1DC7C
:1045100065E1000009280100303132333435363787
:1045200038396162636465660000000030313233FF
:10453000343536373839414243444546000000009F
:1045400000F058F90544761C307800287FF4ECAD73
:1045500019B02846BDE8F08F620700D4062709F19C
:10456000070222F0070CFCE80223E14603F00048B2
:104570005FEA080C02D00FF2702C0DE05FEA045CD9
:1045800002D50FF2682C07E05FEAC47C02D00FF27C
:10459000602C01E0AFF2700C4FF0FF3823F00043C5
:1045A000CDF850C065280CD006DC452809D0462837
:1045B0001DD047283DD13DE0662818D067287ED120
:1045C00038E00021112F01DB112000E0781CCDE93B
:1045D000000106A90EA8FFF7DDFCDDE90F010E9A28
:1045E00003910021009207F1010A04914DE04FF080
:1045F00000400097CDE9011006A90EA8FFF7CAFCFC
:10460000DDE90F0203920E9B11990022DDF80CA048
:104610000093049211B9791C00EB010AB7EB0A0070
:1046200004D4C0F1FF3007F1010A0490AAEB07009F
:10463000019044E0012F00DA01270021112F01DD54
:10464000112000E03846CDE9000106A90EA8FFF7C9
:10465000A1FCDDE90F010E9A039100210491009263
:10466000BA4621070CD40399514500DA8A46BAF1BB
:10467000010F05DD009AAAF10101515C302908D033
:10468000B84202DA10F1040F06DA0121CDE9011077
:1046900015E0AAF10101E9E7002805DC04990144CD
:1046A0000491AAEB000102E0411C514500DD8A465D
:1046B0000499401A401C01904FF0004002902007DE
:1046C00004D40198504501DBCDF8048000208DF81A
:1046D0004F0002980DF14F07B0F1004F25D02B206D
:1046E0000E9002984FF0020800280CDA4042029027
:1046F0002D200E9007E00A210298FCF757F8303180
:10470000029007F8011DB8F10001A8F10108F2DCE0
:1047100002980028EFD1791E0E980870307800F0CA
:10472000200040F0450007F8020D12A8C01B00F160
:1047300007081498007800B1012000EB0A010198E5
:1047400001EBE07105984144401A401E0590E003DA
:1047500006D45B462146179A059800F05DF805449B
:104760001498007818B15A46179990476D1CE003C9
:1047700024D55B462146179A059800F04DF805446C
:104780001CE00498002807DBDDE90301884203DD13
:104790000098405C179901E0179930205A469047DD
:1047A000049805F10105401C04900198401E0190F9
:1047B00004D12E205A46179990476D1CBAF100017A
:1047C000AAF1010ADDDC05E017F8010B5A4617993A
:1047D00090476D1CB8F10001A8F10108F4DC5B46BC
:1047E0002146179A0598ABE62D0000002B0000002B
:1047F000200000002DE9F041044600251E46174622
:10480000880404D405E039462020B0476D1C641E9E
:10481000F9D52846BDE8F0812DE9F0410446002590
:104820001E469046C80301D5302700E020278804A3
:1048300004D505E041463846B0476D1C641EF9D5E5
:104840002846BDE8F08100002DE9F84F04460D46EA
:1048500021F0004000917349814211DC7249884285
:1048600001DC06D12CB120462946BDE8F84FFFF700
:104870006EBB6E48002DCCBF6D496E49BDE8F88F08
:104880006D49814211DD6D498142D8BF4FF0FF363D
:104890006DDD20462946FFF7E1FA042808BFFFF73F
:1048A0005BFB20462946BDE8F88F6549654F25F03A
:1048B0000045814233DD6449814219DD00263246DC
:1048C0004FF0804320462946FBF716FD80468A4676
:1048D000012220462946FBF797FE00223B46FBF7C4
:1048E000ACFD42465346FBF720FE04460D463EE033
:1048F00001260022BA463B4620462946FBF7FCFC2F
:1049000080460F460022534620462946FBF795FD78
:1049100042463B46FBF709FE04460D4627E04B495D
:1049200081421BDDDFF828A10226002253462046E3
:104930002946FBF788FD00223B46FBF7DDFC80465D
:104940000F460022534620462946FBF776FD424695
:104950003B46FBF7EAFD04460D4608E003262246E7
:104960002B4600203B49FBF7E0FD04460D4622465E
:104970002B4610461946FBF766FD8B4682460246DB
:104980000B46FBF760FD07460246334888460B4658
:1049900006217844FFF786FA52465B46FBF753FD43
:1049A00082462E488B463A46434605217844FFF717
:1049B00079FA3A464346FBF746FD02460B46002E7F
:1049C000504659460CDAFBF797FC22462B46FBF77C
:1049D0003AFD01B022462B46BDE8F04FFBF730BD53
:1049E000FBF78AFC22462B46FBF72DFD1C4A7A4436
:1049F00002EBC603D3E90023FBF71FFD22462B463B
:104A0000FBF71BFD174A7A4402EBC603D3E90023E8
:104A1000FBF716FD009A002AB8BF81F00041BDE8FF
:104A2000F88F0000000010440000F07F182D44545F
:104A3000FB21F93FFB21F9BF0000DC3F0000203ED5
:104A40000000F33F0000F03F0000E63F008003401D
:104A50000000F83F0000F0BF620E0000200E0000D2
:104A6000BE0D0000860D00002DE9F04D9446CCF1FE
:104A7000000423F000464CEA0404524F46EAD47482
:104A80009A46884621F00042BC4206D8454240EA98
:104A9000050442EAD474BC4204D9BDE8F04D624634
:104AA000FFF758BAAAF14055A5F17F6555EA0C0405
:104AB0000BD0022404EAAA74434DDFF810E144EA63
:104AC000D87452EA000B04D00CE0BDE8F04DFFF7BB
:104AD000BBBE002C14BF012CBDE8F08D022C30D0E1
:104AE000032C32D056EA0C0B0AD0BE4220D1BA4277
:104AF00009D126F0804622F080423346114617E065
:104B000000291ADB25E0DFF8C8B0FB44002C04BF05
:104B1000DBE90001BDE8F08D012C02BFDBE90001FB
:104B200081F00041BDE8F08D022C0AD0032C0CD09E
:104B3000BA4212D1B8F1000F0BDA23482549BDE87B
:104B4000F08D28462449BDE8F08D28467146BDE821
:104B5000F08D1D482149BDE8F08D921B12153C2AAD
:104B6000C4BF19481D490EDCBAF1000FBEBF12F1D7
:104B70003C0F0020014606DB6246FBF7D6FC21F025
:104B80000041FFF761FE002C08BFBDE8F08D012C4D
:104B900004BF81F00041BDE8F08D114A114B022C99
:104BA00007D0FBF74AFC2A46BDE8F04D0A4BFBF75D
:104BB00044BCFBF742FC2A46BDE8F04D064BFBF730
:104BC0003FBC00000000F07F182D4454FB2109C0B9
:104BD0001A0D0000FB21F9BFFB210940FB21F93F21
:104BE000075C143326A6A13C044900220B685A62D4
:104BF00009684A6A8242FCD3704700000402002020
:104C000038B504468DF800000223012269460248A7
:104C1000FDF788FD204638BD68030020FCF78CFBBB
:104C2000FEF766FEFEF79EFAFEF7FEFBFEF714FBAC
:104C3000FEF77EFBFEF714FCFEF746FBFEF7C0FB1B
:104C4000FEF7EAFA3C21FE48FCF7A0FF3C21FD48B4
:104C5000FCF79CFF0021FC48FDF722F9FB48FCF71C
:104C6000C3FE0021F948FDF72FFB0821F748FDF7A7
:104C70002BFB0C21F548FDF727FBFEF7F5FCFEF7B3
:104C80006EFCFEF715FE0122F149F248FDF72AFD00
:104C90000222F149F148FDF725FDDFF8B0A3F04805
:104CA000FEF765F80128FAD0DFF8B8934FF0130843
:104CB00040F22A3BEB491039881CFBF7F3FEFDF765
:104CC0008BFDE9A203210220FEF7BCFDE74C032384
:104CD000052122780220FEF769FDE5A201210320CB
:104CE000FEF7B0FDE3A201210420FEF7ABFDDD4D90
:104CF0000323103D0421B5F902201846FEF777FD85
:104D000004210323B5F900200846FEF770FDDA4FB1
:104D10000121032308463A68FEF769FDD749D048C8
:104D2000FEF7A6F8D549CE48FEF76AF8D349CC4835
:104D3000FEF7BEF9D149CA48FEF7F6F9C820FBF7DD
:104D400033FFE868012802D1386800F0F3F9C04E5B
:104D50003078662806D101200246A8603146BD4859
:104D6000FDF7C0FC3078672806D10020A86001223A
:104D7000B749B848FDF7B6FC3078752806D1012050
:104D800002466860B249B348FDF7ACFC30786F2842
:104D900006D1022068600122AD49AE48FDF7A2FCB1
:104DA00030786B2806D1032068600122A849A94801
:104DB000FDF798FC307877280CD0732816D064283B
:104DC00025D07A2826D061282AD070282ED078289D
:104DD00044D04CE0A88840F6AC51484301B20020D2
:104DE000FEF75CFBA88840F6AC510AE0A8884FF2B9
:104DF0005421484301B20020FEF750FBA8884FF22F
:104E00005421484301B20220FEF748FB1BE04FF457
:104E1000FA6107E0DAF8001040F2DC50486321E064
:104E20004FF47A71DAF8000041630CE00021084683
:104E3000FEF734FB00210220FEF730FBDAF8001009
:104E400040F2DC504863012281498248FDF74AFC68
:104E50007F4A01210220FEF7F5FC08E0E86850B126
:104E60000020E86001227A497A48FDF73BFCA868F7
:104E7000012802D018E00120F3E72078142813D28B
:104E80007F4C00202146FEF709FB21460220FEF759
:104E900005FB3220FBF788FE00210846FEF7FEFAEC
:104EA00000210220FEF7FAFA744E7220683E40F2AA
:104EB0000221C6E90001B0606B88A9F800302B8898
:104EC00006F10C04A9F80230C4E90001C4E90201AA
:104ED000686920613868C4E90508684FC4E9078B30
:104EE000D7E90201FBF7E7FB6062D7E90401FBF7B2
:104EF000E2FBA062D7E90601FBF7DDFBE062D7E940
:104F00000A01FBF7D8FB2063D7E90C01FBF7D3FBC1
:104F10006063D7E90E01FBF7CEFBC4E90E08C4E9D4
:104F2000108B143F574838607860B860F86038617B
:104F300078616D6840F6AC504A494543083152A04B
:104F4000FEF77CFF51A03168FEF778FF4FA0716833
:104F5000FEF774FF4DA0B168FEF770FFB9F90010BD
:104F60004AA0FEF76BFFB9F9021048A0FEF766FFF2
:104F700046A02168FEF762FF44A06168FEF75EFF6D
:104F800042A0A168FEF75AFF40A0E168FEF756FF75
:104F90003EA02169FEF752FF3CA06169FEF74EFF7B
:104FA0003AA0A169FEF74AFF38A0E169FEF746FF83
:104FB00036A0216AFEF742FF34A0616AFEF73EFF89
:104FC00032A0A16AFEF73AFF30A0E16AFEF736FF91
:104FD0002EA0216BFEF732FF2CA0616BFEF72EFF97
:104FE0002AA0A16BFEF72AFF28A0E16BFEF726FF9F
:104FF00026A0216CFEF722FF24A0616CFEF71EFFA5
:105000003868FBF790FB02460B4621A0FEF716FF1F
:105010007868FBF788FB02460B461DA0FEF70EFFE3
:10502000B868FBF780FB02460B4619A0FEF706FFA7
:10503000F868FBF778FB02460B4615A02CE0000051
:105040004C020020DC020020040200209402002018
:105050001800002068030020000000202403002026
:10506000B0010020C8000020643A000009000020C0
:10507000534C3A0053523A000400002058010020DB
:1050800078ECFFFFCDCCCC3D2573000025642C00CF
:1050900025302E31662C0000FEF7D0FE3869FBF774
:1050A00042FB02460B46AFF21800FEF7C7FE7869D6
:1050B000FBF739FB02460B46AFF22C00FEF7BEFEB3
:1050C000294606A0FEF7BAFE05A0FEF7B7FE04A02B
:1050D000FEF7B4FE03A0FEF7B1FEEBE52564000089
:1050E000302C00003C0000002DE9F04106460F4640
:1050F000FBF758FC041E0D4618BF0120284320F082
:105100000040C0F17F6000F1E040C00F0ED0301CC5
:1051100018BF0120384320F00040C0F17F6000F14B
:10512000E040C00F04BF0120FEF72EFF20462946B5
:10513000BDE8F08110B54042FBF77DFA01460F480B
:10514000FBF76AF80E49FBF70FF8FBF79BFA4FF4F1
:105150007A71884202DB4900884200DD084609492D
:105160000968486340F6AC5421460020FEF796F9E2
:105170002146BDE810400220FEF790B9000070C142
:105180000080BB44940200200000000000000000EA
:105190000000000000000000000000F80000000017
:1051A000000000333000000000100C06100C060058
:1051B000000000000000000040C07840C0784000BF
:1051C000043F04043F040400007088FC0830000021
:1051D000001820FF211E0000F008F000E018000079
:1051E00000211C031E211E0000F008887000000032
:1051F0001E2123241927211010160E000000000084
:105200000000000000000000000000E018040200A0
:10521000000000071820400000020418E000000011
:105220000040201807000000404080F0804040000F
:105230000202010F01020200000000F00000000065
:105240000101011F01010100000000000000000039
:1052500080B07000000000000000000000000000AE
:105260000001010101010101000000000000000037
:1052700000303000000000000000000080601804D2
:10528000006018060100000000E010080810E000AF
:10529000000F102020100F00001010F80000000078
:1052A0000020203F202000000070080808887000BF
:1052B000003028242221300000300888884830003F
:1052C0000018202020110E000000C02010F800005F
:1052D00000070424243F240000F8088888080800F8
:1052E0000019212020110E0000E01088881800000D
:1052F000000F112020110E0000380808C8380800DF
:105300000000003F0000000000708808088870005E
:10531000001C222121221C0000E010080810E000DF
:105320000000312222110F00000000C0C000000068
:10533000000000303000000000000080000000008D
:105340000000806000000000000080402010080085
:10535000000102040810200040404040404040004E
:105360000404040404040400000810204080000029
:105370000020100804020100007048080808F0002E
:105380000000003036010000C030C828E810E000FE
:105390000718272423140B000000C038E000000089
:1053A000203C23020227382008F8888888700000F3
:1053B000203F202020110E00C030080808083800C7
:1053C000071820202010080008F808080810E0003E
:1053D000203F202020100F0008F88888E8081000DF
:1053E000203F20202320180008F88888E8081000B3
:1053F000203F200003000000C030080808380000EB
:1054000007182020221E020008F808000008F808EB
:10541000203F210101213F20000808F80808000072
:105420000020203F2020000000000808F8080800A5
:10543000C08080807F00000008F888C0281808001D
:10544000203F20012638200008F808000000000056
:10545000203F20202020300008F8F800F8F808004D
:10546000203F003F003F200008F830C00008F80847
:10547000203F200007183F00E01008080810E00057
:105480000F10202020100F0008F808080808F0006E
:10549000203F210101010000E01008080810E00091
:1054A0000F18242438504F0008F888888888700026
:1054B000203F2000030C30200070880808083800C6
:1054C0000038202121221C00180808F808081800BC
:1054D0000000203F2000000008F808000008F8083D
:1054E000001F202020201F000878880000C83808EE
:1054F000000007380E010000F80800F80008F80066
:10550000033C0700073C03000818688080681808FF
:1055100020302C03032C30200838C800C83808007D
:105520000000203F2000000010080808C8380800CC
:105530002038262120201800000000FE0202020070
:105540000000007F40404000000C30C00000000020
:10555000000000010638C00000020202FE00000048
:10556000004040407F0000000000040202020400EE
:10557000000000000000000000000000000000002B
:105580008080808080808080000202040000000013
:10559000000000000000000000008080808000000B
:1055A0000019242222223F2008F8008080000000F9
:1055B000003F112020110E000000008080800000BC
:1055C000000E112020201100000000808088F800CB
:1055D000000E112020103F200000808080800000FD
:1055E000001F222222221300008080F08888881861
:1055F0000020203F2020000000008080808080006C
:10560000006B94949493600008F800808080000000
:10561000203F210000203F200080989800000000DB
:105620000020203F2020000000000080989800000B
:1056300000C08080807F000008F80000808080002B
:10564000203F24022D302000000808F80000000050
:105650000020203F2020000080808080808080000B
:10566000203F20003F20003F80800080808000009D
:10567000203F210000203F2000008080808000002B
:10568000001F202020201F0080800080800000005C
:1056900080FFA12020110E0000000080808080008B
:1056A000000E112020A0FF8080808000808080007C
:1056B00020203F21200001000000808080808000A9
:1056C0000033242424241900008080E0808000001E
:1056D0000000001F2020000080800000008080006B
:1056E000001F202020103F208080800000808080CC
:1056F00000010E300806010080800080008080805C
:105700000F300C030C300F00008080008080800080
:105710000020312E0E3120008080800000808080AB
:1057200080818E701806010000808080808080005B
:105730000021302C2221300000000000807C020279
:1057400000000000003F404000000000FF0000009B
:1057500000000000FF0000000002027C800000004A
:105760000040403F00000000000601010202040466
:105770000000000000000000000000000000000029
:1057800001020304060708090000000001020304E7
:105790004FBB610567ACDD3F182D4454FB21E93F49
:1057A0009BF681D20B73EF3F182D4454FB21F93F38
:1057B000E2652F227F2B7A3C075C143326A6813CBE
:1057C000BDCBF07A8807703C075C143326A6913C69
:1057D000C4EB98999999C9BF711623FEC671BCBFD5
:1057E0006D9A74AFF2B0B3BF9AFDDE522DDEADBF3D
:1057F0002F6C6A2C44B4A2BF0D5555555555D53F55
:10580000FF8300922449C23F6E204CC5CD45B73F6F
:10581000513DD0A0660DB13FEB0D76244B7BA93FE7
:1058200011DA22E33AAD903F0000000000000000D2
:105830005058000800000020F0000000683F0008F9
:1058400040590008F0000020C0060000783F000822
:105850000000000000000000000000000000000048
:105860000000000000000000000000000000000038
:105870000000000000000000000000E04D62503F0A
:10588000000000C07493683F000000E051B89E3FE4
:105890000000000000000000000000000000000008
:1058A00000000000000000000000000000000000F8
:1058B00000000000000000000000000000000000E8
:1058C000000000E04D62503F000000C07493683F4C
:1058D000000000E051B89E3F000000000000000002
:1058E00000000000000000000000000000000000B8
:1058F00000000000000000000000000000000000A8
:105900000000000000000000000000000100000096
:105910000000000000000000000000000000000087
:105920004347534A2A000000010000001000000015
:10593000000000000024F40000000000000000004F
:04000005080000ED02
:00000001FF
